:020000040000FA
:1000000001288316003086000030850083128501A8
:100010008601A001382010204D20A0011A200928B7
:100020002008242086004A20A00A0A302006031D4A
:100030001028080020082F2086004A20A00A083037
:100040002006031D1A280800820748344F344C3418
:10005000413420344D3455344E3444344F348207C7
:10006000493443344F342034323430343234313430
:1000700007100130860044200C30860044203C30BC
:10008000860044200714080087145220522087104D
:10009000522008000714442008000710C0308600D2
:1000A00044200800FF30A200FF30A100A10B562819
:0800B000A20B5428080008000F
:02400E00E428A4
:02401000FF3E71
:00000001FF
