:020000040000FA
:100000000128860185018316031385018601831269
:10001000A00137200F204C20A0011920082820081B
:10002000232086004920A00A0A302006031D0F283D
:10003000080020082E2086004920A00A083020064B
:10004000031D19280800820748344F344C344134CA
:1000500020344D3455344E3444344F3482074934BF
:1000600043344F3420343234303432343134051098
:100070000130860043200C30860043203C3086004F
:100080004320071408008514512051208510512069
:1000900008000514432008000510C03086004320E6
:1000A0000800FF30B100FF30B000B00B5528B10B95
:0400B00053280800C9
:02400E00E428A4
:02401000FF3E71
:00000001FF
