:020000040000FA
:10000000000002288316FF30850000308600003093
:1000100087000030880003178801890103138312C9
:100020008601850187018801051C1A281728851C6F
:1000300036286828851C1D284F28A401A5010130F9
:1000400088002408A4088120860025088D208700C8
:10005000E920A40AA50A051C2E281428851C31288D
:1000600014280B302406031D21281428A401A501FF
:10007000023088002408A408992086002508A720BB
:100080008700E920A40AA50A051C14284728851C16
:100090004A2814280D302406031D3A281428A401E8
:1000A000A501043088002408A408B520860025088E
:1000B000C1208700E920A40AA50A051C602814288D
:1000C000851C142863280B302406031D532814288C
:1000D000A401A501083088002408A408CD208600CA
:1000E0002508DB208700E920A40AA50A051C14289E
:1000F0007928851C14287C280D302406031D6C28C3
:10010000142882073334F334FF34C0340C343834C9
:100110000C340C3433343034FF348207FA34FB347B
:100120007734DD347F3467347F34FF347734773489
:10013000FF3482073334F334FF34CC34CC3400340E
:100140000334CC340C343834C0343034FF348207B8
:10015000FA34FB347734DD34BB34EF34FF34DD3430
:100160007F346734DD347734FF34820733348834A6
:10017000FF34C0340C3438340C340C343334303461
:10018000FF348207FA3477347734DD347F346734D0
:100190007F34FF3477347734FF3482073334883444
:1001A000FF34CC34CC3400340334CC340C34383405
:1001B000C0343034FF348207FA3477347734DD3496
:1001C000BB34EF34FF34DD347F346734DD347734CF
:1001D000FF340330A2000830A1007630A000A00B4D
:0E01E000EF28A10BEF28A20BEF280034080037
:02400E00E428A4
:02401000FF3E71
:00000001FF
