:020000040000FA
:10000000000002288316FF30850000308600003093
:1000100087000030880003178801890103138312C9
:100020008601850187018801051C1A281728851C6F
:1000300034286228851C1D284B28A401A50124080A
:10004000A40879208600250885208700E120A40ADD
:10005000A50A051C2C281428851C2F2814280B30D1
:100060002406031D1F281428A401A5012408A408A0
:100070009120860025089F208700E120A40AA50A78
:10008000051C14284328851C462814280D302406F6
:10009000031D36281428A401A5012408A408AD20B6
:1000A00086002508B9208700E120A40AA50A051CBE
:1000B0005A281428851C14285D280B302406031D9B
:1000C0004D281428A401A5012408A408C5208600F1
:1000D0002508D3208700E120A40AA50A051C1428BE
:1000E0007128851C142874280D302406031D6428EB
:1000F000142882073334F334FF34C0340C343834DA
:100100000C340C3433343034FF348207FA34FB348B
:100110007734DD347F3467347F34FF347734773499
:10012000FF3482073334F334FF34CC34CC3400341E
:100130000334CC340C343834C0343034FF348207C8
:10014000FA34FB347734DD34BB34EF34FF34DD3440
:100150007F346734DD347734FF34820733348834B6
:10016000FF34C0340C3438340C340C343334303471
:10017000FF348207FA3477347734DD347F346734E0
:100180007F34FF3477347734FF3482073334883454
:10019000FF34CC34CC3400340334CC340C34383415
:1001A000C0343034FF348207FA3477347734DD34A6
:1001B000BB34EF34FF34DD347F346734DD347734DF
:1001C000FF340330A2000830A1007630A000A00B5D
:0E01D000E728A10BE728A20BE728003408005F
:02400E00E428A4
:02401000FF3E71
:00000001FF
