:020000040000FA
:10000000012883160030860000308700031788011E
:1000100089010313831286018701A001A40120082E
:1000200020081E2086002408392087005420A00ABA
:10003000A40A1A302006031D0F280D288207043455
:1000400003344434FC3430343F340034FF34383427
:100050000034C0343834CC34043403340C34CC345D
:10006000FF340C3430340F34CC343034C0343034BA
:10007000FF348207F734FF347734DD347734BB3410
:10008000FF34FF346734FF34DD346734DD34F73454
:10009000FF347F34BB34FF34FF347734FF34BB3458
:1000A0007734DD347734FF340330A3000830A20006
:1000B0007630A100A10B5A28A20B5A28A30B5A286C
:0400C0000034080000
:02400E00E428A4
:02401000FF3E71
:00000001FF
