:020000040000FA
:020000000528D1
:080008003F28030183160030BC
:100010008600F030850003138312850186012610C7
:10002000A0308B0083168130810083120030A30042
:100030000030B0000030B1000030B2000030B3003A
:100040006520B00A3008093C031D20282728B0018C
:10005000B10A3108063C031D20282E28B001B10149
:10006000B20A3208093C031D20283628B001B1012C
:10007000B201B30A3308063C031D20281828A40047
:10008000030EA5002308043C031D4A28A301FF30EA
:10009000A60026102308303E840000085A2086005F
:1000A00026088500A30AA60D250E8300240E240E23
:1000B0000B1109008207BF348734DB34CF34E634B8
:1000C000ED34FD34C734FF34E7340330A200083088
:1000D000A1007630A000A00B6B28A10B6B28A20B0F
:0600E0006B28003408004B
:02400E00E428A4
:02401000FF3E71
:00000001FF
