:020000040000FA
:020000000528D1
:080008004228030183160030B9
:100010008600F030850003178801890103138312DD
:10002000850186012610A0308B0083168130810067
:1000300083120030A3000030B0000030B100003067
:10004000B2000030B3006820B00A3008093C031D3C
:1000500023282A28B001B10A3108053C031D2328B2
:100060003128B001B101B20A3208093C031D23282E
:100070003928B001B101B201B30A3308053C031DB0
:1000800023281B28A400030EA5002308043C031DFD
:100090004D28A301FF30A60026102308303E84001F
:1000A00000085D20860026088500A30AA60D250EFF
:1000B0008300240E240E0B1109008207BF348734FD
:1000C000DB34CF34E634ED34FD34C734FF34E73469
:1000D0000330A2000830A1007630A000A00B6E28EB
:0C00E000A10B6E28A20B6E280034080053
:02400E00E428A4
:02401000FF3E71
:00000001FF
