:020000040000FA
:020000000528D1
:080008003C28030183160030BF
:100010008600F030850003138312850186012614C3
:10002000A0308B0083168130810083120030A30042
:100030000030B000B100B200B3006120B00A300857
:10004000093C031D1D282428B001B10A3108063CD3
:10005000031D1D282B28B001B101B20A3208093C4A
:10006000031D1D283328B001B101B201B30A3308C2
:10007000063C031D1D281828A400030EA500230814
:10008000043C031D4628A301A60126142308303E84
:10009000840000085620860026088500A30AA60DC5
:1000A000250E8300240E240E0B1109008207C03494
:1000B000F934A434B034993492348234F83480342E
:1000C00098340330A2000830A1007630A000A00BC5
:0E00D0006728A10B6728A20B672800340800E0
:02400E00E428A4
:02401000FF3E71
:00000001FF
