:020000040000FA
:020000000528D1
:080008003E28030183160030BD
:100010008600F03085008312850186012614A03009
:100020008B0083168130810083120030A5000030E0
:10003000B0000030B1000030B2000030B3006720E3
:10004000B00A30080A3C031D1F282628B001B10A57
:100050003108063C031D1F282D28B001B101B20A4A
:1000600032080A3C031D1F283528B001B101B20136
:10007000B30A3308063C031D1F281728A300030EEC
:10008000A4002508043C031D4828A501A601261448
:100090002508303E840000085C20B4003409860046
:1000A0002608B50035098500A50AA60D240E830093
:1000B000A30E230E0B110900820740347934243437
:1000C00030341934123402343834003418340230E5
:1000D000A2008630A1009830A000A00B6D28A10BD3
:0A00E0006D28A20B6D280034080003
:02400E00E428A4
:02401000FF3E71
:00000001FF
