:020000040000FA
:0400000000000528CF
:080008003E288316F03085004C
:1000100000308600031788018901031383128501CC
:1000200086012610A0308B00831681308100831258
:100030000030A3000030B000B100B200B300602077
:10004000B00A30080A3C031D1F282628B001B10A57
:100050003108063C031D1F282D28B001B101B20A4A
:1000600032080A3C031D1F283528B001B101B20136
:10007000B30A3308063C031D1F281A28A400030EE8
:10008000A5002308043C031D4828A301A60126104F
:100090002308303E8400000856208600A60885000C
:1000A000A30AA60D240E83000B1109008207F93460
:1000B000A434B034993492348234F834803498348F
:1000C0000330A2000830A1007630A000A00B662803
:0C00D000A10B6628A20B66280034080073
:02400E00E428A4
:02401000FF3E71
:00000001FF
