:020000040000FA
:1000000001288316F0308500003086000317880130
:10001000890103138312850186010510A0308B002E
:1000200083168130810083120030A7000030A300C6
:100030000030A5000030A4000030A6006020A30A14
:100040002308093C031D1E282528A301A50A25080D
:10005000063C031D1E282C28A301A501A40A240880
:10006000093C031D1E283428A301A501A401A60AEA
:100070002608063C031D1E281628A800030EA9000A
:100080002708043C031D4728A70185010510270800
:10009000303E840000085520860005088500A70A28
:1000A000850D280E83000B1109008207C034F93436
:1000B000A434B034993492348234F834803498348F
:1000C0000330A2000830A1007630A000A00B662803
:0C00D000A10B6628A20B66280034080073
:02400E00E428A4
:02401000FF3E71
:00000001FF
