:020000040000FA
:1000000001280301831600308600F030850083123A
:10001000850186010030A3000030A5000030A40057
:100020000030A6004B20A30A2308093C3920860093
:10003000031D12281B28A301A50A2508063C4420FD
:100040008600031D12282428A301A501A40A240860
:10005000093C39208600031D12282E28A301A50182
:10006000A401A60A2608063C44208600031D122887
:100070000A288207C034F934A434B0349934923455
:100080008234B834803498348207C034F934A434CC
:10009000B034993492340330A2000830A100763095
:1000A000A000A00B5128A10B5128A20B512800340D
:0200B000080046
:02400E00E428A4
:02401000FF3E71
:00000001FF
