:020000040000FA
:10000000090002288316FF308500003086000317A0
:1000100088018901031383128601850105181428BC
:10002000112885183D28172885184C2831280310D9
:10003000013086005E20861F21282528861C29285D
:100040002D28060D86005E201B28060C86005E20EB
:100050001E28060C86005E201E2803100130860034
:100060000E280310013086005E20861F38283C28A9
:10007000060D86005E2035280E280310803086008D
:100080005E20061C44284828060C86005E20412875
:100090000310013086000E28A40124085720860092
:1000A0005E20A40A06302406031D4D280E28820770
:1000B0008134423424341834243442340330A200CE
:1000C0000830A1007630A000A00B6428A10B6428A2
:0800D000A20B642800340800B3
:02400E00E428A4
:02401000FF3E71
:00000001FF
