:020000040000FA
:1000000001288316FF308500003086000317880121
:10001000890103138312860185010518132810280E
:1000200085183C28162885184B28302803100130E5
:1000300086005D20861F20282428861C28282C283E
:10004000060D86005D201A28060C86005D201D28FE
:10005000060C86005D201D280310013086000D2847
:100060000310013086005D20861F37283B28060DCF
:1000700086005D2034280D280310803086005D2026
:10008000061C43284728060C86005D2040280310E4
:10009000013086000D28A4012408562086005D202A
:1000A000A40A06302406031D4C280D28820781343B
:1000B000423424341834243442340330A20008304B
:1000C000A1007630A000A00B6328A10B6328A20B2F
:0600D00063280034080063
:02400E00E428A4
:02401000FF3E71
:00000001FF
