:020000040000FA
:1000000001288316FF308500003086000317880121
:10001000890103138312860185010518132810280E
:1000200085183C28162885184B28302803100130E5
:1000300086004C20861F20282428861C28282C284F
:10004000060D86004C201A28060C86004C201D2820
:10005000060C86004C201D280310013086000D2858
:100060000310013086004C20861F37283B28060DE0
:1000700086004C2034280D280310803086004C2048
:10008000061C43284728060C86004C2040280310F5
:10009000013086000D280D280330A2000830A10091
:1000A0007630A000A00B5228A10B5228A20B522898
:0400B0000034080010
:02400E00E428A4
:02401000FF3E71
:00000001FF
