:020000040000FA
:020000000528D1
:080008001F28030183160030DC
:100010008600F0308500831285018601A715A03087
:100020008B008316823081008312A501A6015F2018
:10003000A60A2608193C031D1728A6011728A300A5
:10004000030EA4002508043C031D2928A501A701CF
:10005000A715250826073B20A800280986002708A1
:10006000A90029098500A50AA70C240E8300A30E68
:10007000230E0B1109008207FF348634C734FF3486
:100080008C348834C734CF34C734C734C034FF34D9
:10009000C034FF348634C734FF348E34C034C634A1
:1000A000C034FF3486349234FF34C63488348E34FE
:1000B0008634FF34E1348834E1348834FF3403304B
:1000C000A2000830A1007630A000A00B6528A10B8B
:0A00D0006528A20B65280034080023
:02400E00E428A4
:02401000FF3E71
:00000001FF
