:020000040000FA
:020000000528D1
:080008001F28030183160030DC
:100010008600F0308500831285018601A715A03087
:100020008B008316823081008312A501A601412036
:10003000A60A2608193C031D1728A6011728A300A5
:10004000030EA4002508043C031D2928A501A701CF
:10005000A715250826073720860027088500A50A4A
:10006000A70C240E8300A30E230E0B110900820798
:10007000FF340E340634C734CF34463406341234D9
:10008000FF340230A2008630A1009830A000A00BFF
:0E0090004728A10B4728A20B47280034080080
:02400E00E428A4
:02401000FF3E71
:00000001FF
