:020000040000FA
:10000000012883160030860000308700031788011E
:1000100089010313831286018701A001A40120082E
:1000200020081E2086002408392087005420A00ABA
:10003000A40A1A302006031D0F280D288207FB345E
:10004000FC34BB340334CF34C034FF340034C73401
:10005000FF343F34C7343334FB34FC34F3343334AB
:100060000034F334CF34F0343334CF343F34CF342E
:10007000003482070834003488342234883444340D
:100080000034003498340034223498342234083454
:100090000034803444340034003488340034443430
:1000A00088342234883400340330A3000830A2009E
:1000B0007630A100A10B5A28A20B5A28A30B5A286C
:0400C0000034080000
:02400E00E428A4
:02401000FF3E71
:00000001FF
